:020000040800F2
:10000000FF270020750C0008BD0C0008BD0C00087F
:10001000BD0C0008BD0C0008BD0C0008000000006D
:10002000000000000000000000000000BD0C0008FF
:10003000BD0C000800000000BD0C000825040008ED
:10004000BD0C0008BD0C0008BD0C0008BD0C00086C
:10005000BD0C0008BD0C0008BD0C0008BD0C00085C
:10006000BD0C0008BD0C0008BD0C0008BD0C00084C
:10007000BD0C0008BD0C0008BD0C0008BD0C00083C
:10008000BD0C0008BD0C0008BD0C0008BD0C00082C
:10009000BD0C0008BD0C0008BD0C0008BD0C00081C
:1000A000BD0C0008BD0C0008BD0C0008BD0C00080C
:1000B000BD0C0008BD0C000800000000BD0C0008CD
:1000C000BD0C00080000000000000000BD0C00088E
:1000D00000000000BD0C0008BD0C0008000000007E
:1000E000BD0C0008BD0C0008BD0C0008000000009D
:1000F0000000000000000000000000000000000000
:0C01000000000000000000005FF808F1A3
:1001100010B5054C237833B9044B13B10448AFF341
:1001200000800123237010BD0400002000000000A7
:10013000C00C0008084B10B51BB108480849AFF3C4
:1001400000800848036803B910BD074B002BFBD0A3
:10015000BDE81040184700BF00000000C00C0008B8
:100160000800002004000020000000000000000043
:1001700080B500AF104A104B9B6943F004039361B4
:100180000E4B4FF480121A6000F05EF90B4A0B4BD5
:10019000DB6843F02003D3604FF47A7000F030F94D
:1001A000064A064BDB6823F02003D3604FF47A70D5
:1001B00000F026F9EAE700BF001002400008014005
:1001C00080B400AF154A154B1B6843F00103136060
:1001D0001249124B5A68124B13404B600F4A0F4B97
:1001E0001B6823F0847323F4803313600B4A0B4B9A
:1001F0001B6823F480231360084A084B5B6823F4D0
:10020000FE035360054B4FF41F029A60054B4FF0FD
:1002100000629A60BD465DF8047B704700100240A2
:100220000000FFF800ED00E080B485B000AF0023CF
:10023000FB600023BB6000237B602B4B5B6803F0FB
:100240000C03FB60FB68042B07D0082B09D0002BA4
:1002500033D1264B264A1A6032E0244B244A1A60D6
:100260002EE0214B5B6803F47013BB601E4B5B6890
:1002700003F480337B60BB689B0C0233BB607B68FC
:10028000002B06D1BB681B4A02FB03F3174A13601D
:1002900016E0154B5B6803F40033002B06D0BB68F7
:1002A000144A02FB03F3114A136009E0BB68104AC9
:1002B00002FB03F30D4A136002E00C4B0C4A1A6078
:1002C000094B5B6803F0F0031B090B4AD35CFB602E
:1002D000064B1A68FB6822FA03F3044A13601437CA
:1002E000BD465DF8047B704700100240000000200E
:1002F00000127A0000093D00D80C000880B483B0D9
:1003000000AF03463960FB7197F90730002B0BDA19
:100310000D49FB7903F00F03043B3A68D2B2120196
:10032000D2B20B441A7609E0084997F907303A68C7
:10033000D2B21201D2B20B4483F800230C37BD466F
:100340005DF8047B704700BF00ED00E000E100E0D5
:1003500080B582B000AF78607B68013BB3F1807FED
:1003600001D301230FE00A4A7B68013B53604FF041
:10037000FF300F21FFF7C2FF054B00229A60044BAC
:1003800007221A60002318460837BD4680BD00BF0B
:1003900010E000E080B500AFFFF746FF0E4B1B6892
:1003A000184600F099F902460B461046194608A374
:1003B000D3E9002300F030FB02460B4610461946F5
:1003C00000F012FC03461846FFF7C2FF80BD00BFD5
:1003D0000000000080842E410000002080B483B023
:1003E00000AF7860054A7B681360044B1B68002BE4
:1003F000FBD10C37BD465DF8047B70472000002020
:1004000080B582B000AF786003E04FF47A70FFF7F8
:10041000E5FF7B685A1E7A60002BF6D10837BD468F
:1004200080BD00BF80B400AF064B1B68002B04D01A
:10043000044B1B68013B034A1360BD465DF8047B17
:10044000704700BF2000002080B500AFFFF7A2FF7B
:1004500080BD00BF81F0004102E000BF83F0004397
:1004600030B54FEA41044FEA430594EA050F08BF4F
:1004700090EA020F1FBF54EA000C55EA020C7FEA13
:10048000645C7FEA655C00F0E2804FEA5454D4EB90
:100490005555B8BF6D420CDD2C4480EA020281EA5A
:1004A000030382EA000083EA010180EA020281EA92
:1004B0000303362D88BF30BD11F0004F4FEA0131E4
:1004C0004FF4801C4CEA113102D0404261EB4101F3
:1004D00013F0004F4FEA03334CEA133302D0524279
:1004E00063EB430394EA050F00F0A780A4F1010435
:1004F000D5F1200E0DDB02FA0EFC22FA05F280186F
:1005000041F1000103FA0EF2801843FA05F3594154
:100510000EE0A5F120050EF1200E012A03FA0EFCD3
:1005200028BF4CF0020C43FA05F3C01851EBE371FD
:1005300001F0004507D54FF0000EDCF1000C7EEB1A
:1005400000006EEB0101B1F5801F1BD3B1F5001F58
:100550000CD349085FEA30004FEA3C0C04F1010477
:100560004FEA445212F5800F80F09A80BCF1004FA0
:1005700008BF5FEA500C50F1000041EB045141EA22
:10058000050130BD5FEA4C0C404141EB010111F423
:10059000801FA4F10104E9D191F0000F04BF0146CE
:1005A0000020B1FA81F308BF2033A3F10B03B3F1AC
:1005B00020020CDA0C3208DD02F1140CC2F10C023C
:1005C00001FA0CF021FA02F10CE002F11402D8BF9A
:1005D000C2F1200C01FA02F120FA0CFCDCBF41EA66
:1005E0000C019040E41AA2BF01EB0451294330BD35
:1005F0006FEA04041F3C1CDA0C340EDC04F1140412
:10060000C4F1200220FA04F001FA02F340EA0300E8
:1006100021FA04F345EA030130BDC4F10C04C4F12E
:10062000200220FA02F001FA04F340EA030029460E
:1006300030BD21FA04F0294630BD94F0000F83F458
:10064000801306BF81F480110134013D4EE77FEA3B
:10065000645C18BF7FEA655C29D094EA050F08BF87
:1006600090EA020F05D054EA000C04BF1946104668
:1006700030BD91EA030F1EBF0021002030BD5FEAAC
:10068000545C05D14000494128BF41F0004130BDD4
:1006900014F580043CBF01F5801130BD01F0004528
:1006A00045F0FE4141F470014FF0000030BD7FEA9B
:1006B000645C1ABF194610467FEA655C1CBF0B4696
:1006C000024650EA013406BF52EA033591EA030FAD
:1006D00041F4002130BD00BF90F0000F04BF0021A5
:1006E000704730B54FF4806404F132044FF00005D8
:1006F0004FF0000150E700BF90F0000F04BF002151
:10070000704730B54FF4806404F1320410F00045B6
:1007100048BF40424FF000013EE700BF42004FEAB1
:10072000E2014FEA31014FEA02701FBF12F07F432E
:1007300093F07F4F81F06051704792F0000F14BF2B
:1007400093F07F4F704730B54FF4607401F000456F
:1007500021F0004120E700BF50EA010208BF7047C6
:1007600030B54FF000050AE050EA010208BF7047BB
:1007700030B511F0004502D5404261EB41014FF424
:10078000806404F132045FEA915C3FF4DCAE4FF028
:1007900003025FEADC0C18BF03325FEADC0C18BF0F
:1007A000033202EBDC02C2F1200300FA03FC20FA60
:1007B00002F001FA03FE40EA0E0021FA02F11444AD
:1007C000C1E600BF70B54FF0FF0C4CF4E06C1CEAC2
:1007D00011541DBF1CEA135594EA0C0F95EA0C0F37
:1007E00000F0DEF82C4481EA030621EA4C5123EAAA
:1007F0004C5350EA013518BF52EA033541F48011D9
:1008000043F4801338D0A0FB02CE4FF00005E1FB8B
:1008100002E506F00042E0FB03E54FF00006E1FBD5
:1008200003569CF0000F18BF4EF0010EA4F1FF0418
:10083000B6F5007F64F5407404D25FEA4E0E6D4158
:1008400046EB060642EAC62141EA55514FEAC52069
:1008500040EA5E504FEACE2EB4F1FD0C88BFBCF5E5
:10086000E06F1ED8BEF1004F08BF5FEA500E50F196
:10087000000041EB045170BD06F0004646EA01015C
:1008800040EA020081EA0301B4EB5C04C2BFD4EB8E
:100890000C0541EA045170BD41F480114FF0000E87
:1008A000013C00F3AB8014F1360FDEBF002001F0F5
:1008B000004170BDC4F10004203C35DA0C341BDC6F
:1008C00004F11404C4F1200500FA05F320FA04F041
:1008D00001FA05F240EA020001F0004221F0004175
:1008E00010EBD37021FA04F642EB06015EEA430EE8
:1008F00008BF20EAD37070BDC4F10C04C4F1200518
:1009000000FA04F320FA05F001FA04F240EA0200CA
:1009100001F0004110EBD37041F100015EEA430E9B
:1009200008BF20EAD37070BDC4F1200500FA05F2BB
:100930004EEA020E20FA04F301FA05F243EA02033A
:1009400021FA04F001F0004121FA04F220EA020049
:1009500000EBD3705EEA430E08BF20EAD37070BD8F
:1009600094F0000F0FD101F00046400041EB01016F
:1009700011F4801F08BF013CF7D041EA060195F051
:10098000000F18BF704703F00046520043EB03030B
:1009900013F4801F08BF013DF7D043EA06037047F8
:1009A00094EA0C0F0CEA135518BF95EA0C0F0CD003
:1009B00050EA410618BF52EA4306D1D181EA030149
:1009C00001F000414FF0000070BD50EA410606BF43
:1009D0001046194652EA430619D094EA0C0F02D188
:1009E00050EA013613D195EA0C0F05D152EA0336CD
:1009F0001CBF104619460AD181EA030101F00041EB
:100A000041F0FE4141F470014FF0000070BD41F033
:100A1000FE4141F4780170BD70B54FF0FF0C4CF40D
:100A2000E06C1CEA11541DBF1CEA135594EA0C0F2C
:100A300095EA0C0F00F0A7F8A4EB050481EA030E79
:100A400052EA03354FEA013100F088804FEA033360
:100A50004FF0805545EA131343EA12634FEA02222E
:100A600045EA111545EA10654FEA00260EF00041EF
:100A70009D4208BF964244F1FD0404F5407402D241
:100A80005B084FEA3202B61A65EB03055B084FEAD2
:100A900032024FF480104FF4002CB6EB020E75EBCF
:100AA000030E22BFB61A754640EA0C005B084FEAF7
:100AB0003202B6EB020E75EB030E22BFB61A754674
:100AC00040EA5C005B084FEA3202B6EB020E75EBBF
:100AD000030E22BFB61A754640EA9C005B084FEA37
:100AE0003202B6EB020E75EB030E22BFB61A754644
:100AF00040EADC0055EA060E18D04FEA051545EA33
:100B000016754FEA06164FEAC30343EA52734FEADB
:100B1000C2025FEA1C1CC0D111F4801F0BD141EA54
:100B200000014FF000004FF0004CB6E711F4801FB9
:100B300004BF01430020B4F1FD0C88BFBCF5E06F99
:100B40003FF6AFAEB5EB030C04BFB6EB020C5FEAA9
:100B5000500C50F1000041EB045170BD0EF0004EFE
:100B60004EEA113114EB5C04C2BFD4EB0C0541EA30
:100B7000045170BD41F480114FF0000E013C90E62D
:100B800045EA060E8DE60CEA135594EA0C0F08BFF1
:100B900095EA0C0F3FF43BAF94EA0C0F0AD150EAF0
:100BA00001347FF434AF95EA0C0F7FF425AF104683
:100BB00019462CE795EA0C0F06D152EA03353FF4AB
:100BC000FDAE1046194622E750EA410618BF52EA28
:100BD00043067FF4C5AE50EA41047FF40DAF52EAFC
:100BE00043057FF4EBAE12E74A0011D212F5001272
:100BF00011D20DD56FF47873B3EB62520ED44FEA75
:100C0000C12343F0004343EA505323FA02F07047F4
:100C10004FF00000704750EA013002D14FF0FF3032
:100C200070474FF0000070470E4B70B51E460E4CDB
:100C30000025E41AA410A54204D056F825309847A0
:100C40000135F8E700F03CF8084B094C1E46E41A61
:100C5000A4100025A54204D056F825309847013548
:100C6000F8E770BDF00C0008F00C0008F00C00086C
:100C7000F40C0008002103E00B4B5B584350043197
:100C80000A480B4B42189A42F6D30A4A02E0002364
:100C900042F8043B084B9A42F9D3FFF791FAFFF769
:100CA000C3FFFFF765FA7047F80C0008000000204A
:100CB000040000200400002024000020FEE70000C3
:100CC000F8B500BFF8BC08BC9E467047F8B500BF39
:080CD000F8BC08BC9E46704709
:100CD80000000000000000000102030406070809E4
:080CE8000000000001020304FA
:040CF00035010008C2
:040CF40011010008E2
:040CF80000A24A0408
:0400000508000C756E
:00000001FF
